{
  "contractName": "MedicalRecords",
  "abi": [
    {
      "inputs": [],
      "stateMutability": "nonpayable",
      "type": "constructor"
    },
    {
      "inputs": [],
      "name": "owner",
      "outputs": [
        {
          "internalType": "address",
          "name": "",
          "type": "address"
        }
      ],
      "stateMutability": "view",
      "type": "function",
      "constant": true
    },
    {
      "inputs": [
        {
          "internalType": "address",
          "name": "_patientAddress",
          "type": "address"
        },
        {
          "internalType": "string",
          "name": "_patientName",
          "type": "string"
        },
        {
          "internalType": "string",
          "name": "_diagnosis",
          "type": "string"
        },
        {
          "internalType": "string",
          "name": "_treatment",
          "type": "string"
        }
      ],
      "name": "addRecord",
      "outputs": [],
      "stateMutability": "nonpayable",
      "type": "function"
    },
    {
      "inputs": [
        {
          "internalType": "address",
          "name": "_patientAddress",
          "type": "address"
        }
      ],
      "name": "getRecordsByAddress",
      "outputs": [
        {
          "components": [
            {
              "internalType": "string",
              "name": "patientName",
              "type": "string"
            },
            {
              "internalType": "string",
              "name": "diagnosis",
              "type": "string"
            },
            {
              "internalType": "string",
              "name": "treatment",
              "type": "string"
            },
            {
              "internalType": "uint256",
              "name": "timestamp",
              "type": "uint256"
            }
          ],
          "internalType": "struct MedicalRecords.Record[]",
          "name": "",
          "type": "tuple[]"
        }
      ],
      "stateMutability": "view",
      "type": "function",
      "constant": true
    },
    {
      "inputs": [
        {
          "internalType": "address",
          "name": "_patientAddress",
          "type": "address"
        }
      ],
      "name": "getRecordCountByAddress",
      "outputs": [
        {
          "internalType": "uint256",
          "name": "",
          "type": "uint256"
        }
      ],
      "stateMutability": "view",
      "type": "function",
      "constant": true
    }
  ],
  "bytecode": "0x608060405234801561001057600080fd5b50600180546001600160a01b031916331790556107b7806100326000396000f3fe608060405234801561001057600080fd5b506004361061004c5760003560e01c80638da5cb5b1461005157806399fd99301461006f578063ad88bb271461008f578063e8fb4696146100af575b600080fd5b6100596100c4565b6040516100669190610633565b60405180910390f35b61008261007d366004610532565b6100d3565b6040516100669190610727565b6100a261009d366004610532565b6100f2565b6040516100669190610647565b6100c26100bd366004610553565b610325565b005b6001546001600160a01b031681565b6001600160a01b0381166000908152602081905260409020545b919050565b6001600160a01b038116600090815260208181526040808320805482518185028101850190935280835260609492939192909184015b8282101561031a578382906000526020600020906004020160405180608001604052908160008201805461015b90610730565b80601f016020809104026020016040519081016040528092919081815260200182805461018790610730565b80156101d45780601f106101a9576101008083540402835291602001916101d4565b820191906000526020600020905b8154815290600101906020018083116101b757829003601f168201915b505050505081526020016001820180546101ed90610730565b80601f016020809104026020016040519081016040528092919081815260200182805461021990610730565b80156102665780601f1061023b57610100808354040283529160200191610266565b820191906000526020600020905b81548152906001019060200180831161024957829003601f168201915b5050505050815260200160028201805461027f90610730565b80601f01602080910402602001604051908101604052809291908181526020018280546102ab90610730565b80156102f85780601f106102cd576101008083540402835291602001916102f8565b820191906000526020600020905b8154815290600101906020018083116102db57829003601f168201915b5050505050815260200160038201548152505081526020019060010190610128565b505050509050919050565b6001546001600160a01b031633146103585760405162461bcd60e51b815260040161034f906106f0565b60405180910390fd5b6001600160a01b0384166000908152602081815260408083208151608081018352878152808401879052918201859052426060830152805460018101825590845292829020815180519294600402909101926103b992849290910190610401565b5060208281015180516103d29260018501920190610401565b50604082015180516103ee916002840191602090910190610401565b5060608201518160030155505050505050565b82805461040d90610730565b90600052602060002090601f01602090048101928261042f5760008555610475565b82601f1061044857805160ff1916838001178555610475565b82800160010185558215610475579182015b8281111561047557825182559160200191906001019061045a565b50610481929150610485565b5090565b5b808211156104815760008155600101610486565b80356001600160a01b03811681146100ed57600080fd5b600082601f8301126104c1578081fd5b813567ffffffffffffffff808211156104dc576104dc61076b565b604051601f8301601f1916810160200182811182821017156105005761050061076b565b604052828152848301602001861015610517578384fd5b82602086016020830137918201602001929092529392505050565b600060208284031215610543578081fd5b61054c8261049a565b9392505050565b60008060008060808587031215610568578283fd5b6105718561049a565b9350602085013567ffffffffffffffff8082111561058d578485fd5b610599888389016104b1565b945060408701359150808211156105ae578384fd5b6105ba888389016104b1565b935060608701359150808211156105cf578283fd5b506105dc878288016104b1565b91505092959194509250565b60008151808452815b8181101561060d576020818501810151868301820152016105f1565b8181111561061e5782602083870101525b50601f01601f19169290920160200192915050565b6001600160a01b0391909116815260200190565b60208082528251828201819052600091906040908185019080840286018301878501865b838110156106e257603f19898403018552815160808151818652610691828701826105e8565b915050888201518582038a8701526106a982826105e8565b91505087820151858203898701526106c182826105e8565b6060938401519690930195909552509487019492509086019060010161066b565b509098975050505050505050565b6020808252601a908201527f4f6e6c79206f776e65722063616e20616464207265636f726473000000000000604082015260600190565b90815260200190565b60028104600182168061074457607f821691505b6020821081141561076557634e487b7160e01b600052602260045260246000fd5b50919050565b634e487b7160e01b600052604160045260246000fdfea2646970667358221220ec220787abad7c3d26e444cb52a0205e53ff4b75f1cf727b4f10e2a2bcd4860e64736f6c63430008000033",
  "immutableReferences": {},
  "source": "// SPDX-License-Identifier: MIT\r\npragma solidity ^0.8.0;\r\n\r\ncontract MedicalRecords {\r\n    struct Record {\r\n        string patientName;\r\n        string diagnosis;\r\n        string treatment;\r\n        uint256 timestamp;\r\n    }\r\n\r\n    // Mapping from patient address to their records\r\n    mapping(address => Record[]) private patientRecords;\r\n    address public owner;\r\n\r\n    constructor() {\r\n        owner = msg.sender;\r\n    }\r\n\r\n    modifier onlyOwner() {\r\n        require(msg.sender == owner, \"Only owner can add records\");\r\n        _;\r\n    }\r\n\r\n    // Add a new medical record for a specific address\r\n    function addRecord(\r\n        address _patientAddress,\r\n        string memory _patientName,\r\n        string memory _diagnosis,\r\n        string memory _treatment\r\n    ) public onlyOwner {\r\n        patientRecords[_patientAddress].push(Record({\r\n            patientName: _patientName,\r\n            diagnosis: _diagnosis,\r\n            treatment: _treatment,\r\n            timestamp: block.timestamp\r\n        }));\r\n    }\r\n\r\n    // Get all records for a specific address\r\n    function getRecordsByAddress(address _patientAddress) \r\n        public \r\n        view \r\n        returns (Record[] memory) \r\n    {\r\n        return patientRecords[_patientAddress];\r\n    }\r\n\r\n    // Get record count for a specific address\r\n    function getRecordCountByAddress(address _patientAddress)\r\n        public\r\n        view\r\n        returns (uint256)\r\n    {\r\n        return patientRecords[_patientAddress].length;\r\n    }\r\n}",
  "sourcePath": "D:\\Ahmed Yasser 1\\Grad Project\\medical-records-dapp\\contracts\\contracts\\MedicalRecords.sol",
  "compiler": {
    "name": "solc",
    "version": "0.8.0+commit.c7dfd78e.Emscripten.clang"
  },
  "schemaVersion": "3.4.16",
  "updatedAt": "2025-04-02T23:42:58.306Z",
  "networkType": "ethereum",
  "devdoc": {
    "kind": "dev",
    "methods": {},
    "version": 1
  },
  "userdoc": {
    "kind": "user",
    "methods": {},
    "version": 1
  }
}